:100000000C942A000C943C000C943C000C943C0092
:100010000C943C000C943C000C943C000C943C0070
:100020000C943C000C943C000C943C000C943C0060
:100030000C943C000C9447000C943C000C943C0045
:100040000C943C000C943C000C943C000C943C0040
:100050000C943C0011241FBECFE5D8E0DEBFCDBF1D
:1000600020E0A0E6B0E001C01D92A136B207E1F7A2
:100070000E943E000C9472050C940000CF93DF9315
:10008000CDB7DEB70E9478000E949304FFCF1F9285
:100090000F920FB60F9211242F933F934F935F93BC
:1000A0006F937F938F939F93AF93BF93EF93FF9340
:1000B000CF93DF93CDB7DEB70E94900080936000AE
:1000C000809160000E94D7040000DF91CF91FF91E2
:1000D000EF91BF91AF919F918F917F916F915F91C0
:1000E0004F913F912F910F900FBE0F901F90189539
:1000F000CF93DF93CDB7DEB70E94F2040000DF910B
:10010000CF910895CF93DF930F92CDB7DEB7898358
:1001100089810E94240500000F90DF91CF910895FE
:10012000CF93DF930F92CDB7DEB719820E944405BB
:10013000898389810F90DF91CF910895CF93DF93C9
:1001400000D00F92CDB7DEB789836A834B838B8152
:10015000882F90E0009721F0019709F475C0E7C05F
:100160008981882F90E08330910509F455C084304F
:1001700091050CF0D9C082309105B9F18330910519
:100180000CF0D2C0009719F00197C1F0CDC08AE3FE
:1001900090E0FC018081482F8A81282F30E081E0A7
:1001A00090E002C0880F991F2A95E2F78095242FCE
:1001B00028238AE390E0FC01208345C087E390E098
:1001C000FC018081482F8A81282F30E081E090E077
:1001D00002C0880F991F2A95E2F78095242F2823C3
:1001E00087E390E0FC0120832EC084E390E0FC01D3
:1001F0008081482F8A81282F30E081E090E002C082
:10020000880F991F2A95E2F78095242F282384E3ED
:1002100090E0FC01208317C081E390E0FC01808125
:10022000482F8A81282F30E081E090E002C0880FBB
:10023000991F2A95E2F78095242F282381E390E0E7
:10024000FC012083000070C08981882F90E08330FA
:10025000910509F452C0843091050CF067C08230DA
:100260009105A9F1833091050CF060C0009719F059
:100270000197B9F05BC08AE390E0FC018081482FD0
:100280008A81282F30E081E090E002C0880F991F1A
:100290002A95E2F7242F282B8AE390E0FC012083A3
:1002A00042C087E390E0FC018081482F8A81282F9B
:1002B00030E081E090E002C0880F991F2A95E2F7B4
:1002C000242F282B87E390E0FC0120832CC084E3BB
:1002D00090E0FC018081482F8A81282F30E081E066
:1002E00090E002C0880F991F2A95E2F7242F282B4F
:1002F00084E390E0FC01208316C081E390E0FC01E0
:100300008081482F8A81282F30E081E090E002C070
:10031000880F991F2A95E2F7242F282B81E390E07C
:10032000FC012083000002C0000001C000000000AA
:100330000F900F900F90DF91CF910895CF93DF939F
:1003400000D00F92CDB7DEB789836A834B838B8150
:10035000882F90E0009721F0019709F475C0E7C05D
:100360008981882F90E08330910509F455C084304D
:1003700091050CF0D9C082309105B9F18330910517
:100380000CF0D2C0009719F00197C1F0CDC08BE3FB
:1003900090E0FC018081482F8A81282F30E081E0A5
:1003A00090E002C0880F991F2A95E2F78095242FCC
:1003B00028238BE390E0FC01208345C088E390E094
:1003C000FC018081482F8A81282F30E081E090E075
:1003D00002C0880F991F2A95E2F78095242F2823C1
:1003E00088E390E0FC0120832EC085E390E0FC01CF
:1003F0008081482F8A81282F30E081E090E002C080
:10040000880F991F2A95E2F78095242F282385E3EA
:1004100090E0FC01208317C082E390E0FC01808122
:10042000482F8A81282F30E081E090E002C0880FB9
:10043000991F2A95E2F78095242F282382E390E0E4
:10044000FC012083000070C08981882F90E08330F8
:10045000910509F452C0843091050CF067C08230D8
:100460009105A9F1833091050CF060C0009719F057
:100470000197B9F05BC08BE390E0FC018081482FCD
:100480008A81282F30E081E090E002C0880F991F18
:100490002A95E2F7242F282B8BE390E0FC012083A0
:1004A00042C088E390E0FC018081482F8A81282F98
:1004B00030E081E090E002C0880F991F2A95E2F7B2
:1004C000242F282B88E390E0FC0120832CC085E3B7
:1004D00090E0FC018081482F8A81282F30E081E064
:1004E00090E002C0880F991F2A95E2F7242F282B4D
:1004F00085E390E0FC01208316C082E390E0FC01DC
:100500008081482F8A81282F30E081E090E002C06E
:10051000880F991F2A95E2F7242F282B82E390E079
:10052000FC012083000002C0000001C000000000A8
:100530000F900F900F90DF91CF910895CF93DF939D
:1005400000D0CDB7DEB789836A838981882F90E098
:100550008330910509F452C0843091050CF064C0D9
:1005600082309105A9F1833091050CF05DC00097B0
:1005700019F00197B9F058C08BE390E0FC0180813D
:10058000482F8A81282F30E081E090E002C0880F58
:10059000991F2A95E2F7242F28278BE390E0FC018E
:1005A000208342C088E390E0FC018081482F8A814B
:1005B000282F30E081E090E002C0880F991F2A9533
:1005C000E2F7242F282788E390E0FC0120832CC049
:1005D00085E390E0FC018081482F8A81282F30E05C
:1005E00081E090E002C0880F991F2A95E2F7242F3E
:1005F000282785E390E0FC01208316C082E390E089
:10060000FC018081482F8A81282F30E081E090E032
:1006100002C0880F991F2A95E2F7242F282782E32A
:1006200090E0FC012083000000000F900F90DF910C
:10063000CF910895CF93DF9300D0CDB7DEB78983F4
:100640006A838981882F90E08330910509F440C046
:10065000843091050CF04CC08230910549F1833013
:1006600091050CF045C0009719F0019789F040C042
:1006700089E390E0FC018081882F90E02A81222F7D
:1006800030E002C0959587952A95E2F7817031C0D8
:1006900086E390E0FC018081882F90E02A81222F60
:1006A00030E002C0959587952A95E2F7817021C0C8
:1006B00083E390E0FC018081882F90E02A81222F43
:1006C00030E002C0959587952A95E2F7817011C0B8
:1006D00080E390E0FC018081882F90E02A81222F26
:1006E00030E002C0959587952A95E2F7817001C0A8
:1006F00080E00F900F90DF91CF910895CF93DF931B
:1007000000D0CDB7DEB789836A838981882F90E0D6
:100710008330910509F452C0843091050CF064C017
:1007200082309105A9F1833091050CF05DC00097EE
:1007300019F00197B9F058C08BE390E0FC0180817B
:10074000482F8A81282F30E081E090E002C0880F96
:10075000991F2A95E2F7242F282B8BE390E0FC01C8
:10076000208342C088E390E0FC018081482F8A8189
:10077000282F30E081E090E002C0880F991F2A9571
:10078000E2F7242F282B88E390E0FC0120832CC083
:1007900085E390E0FC018081482F8A81282F30E09A
:1007A00081E090E002C0880F991F2A95E2F7242F7C
:1007B000282B85E390E0FC01208316C082E390E0C3
:1007C000FC018081482F8A81282F30E081E090E071
:1007D00002C0880F991F2A95E2F7242F282B82E365
:1007E00090E0FC012083000000000F900F90DF914B
:1007F000CF910895CF93DF93CDB7DEB741E062E0AC
:1008000082E00E949E000000DF91CF910895CF9377
:10081000DF93CDB7DEB741E062E082E00E949E0147
:100820000000DF91CF910895CF93DF93CDB7DEB76E
:1008300040E062E082E00E949E010000DF91CF91E3
:100840000895CF93DF93CDB7DEB762E082E00E94D8
:100850009E020000DF91CF910895CF93DF93CDB733
:10086000DEB741E067E082E00E949E000000DF9179
:10087000CF910895CF93DF93CDB7DEB741E067E026
:1008800082E00E949E010000DF91CF910895CF93F6
:10089000DF93CDB7DEB740E067E082E00E949E01C3
:1008A0000000DF91CF910895CF93DF93CDB7DEB7EE
:1008B00067E082E00E949E020000DF91CF910895E0
:1008C000CF93DF93CDB7DEB741E063E083E00E94D2
:1008D0009E000000DF91CF910895CF93DF93CDB7B5
:1008E000DEB741E063E083E00E949E010000DF91FB
:1008F000CF910895CF93DF93CDB7DEB740E063E0AB
:1009000083E00E949E010000DF91CF910895CF9374
:10091000DF93CDB7DEB763E083E00E949E02000064
:10092000DF91CF910895CF93DF93CDB7DEB787E303
:1009300090E0FC01208187E390E02062FC012083AD
:1009400087E390E0FC01208187E390E02F7BFC01AE
:10095000208387E390E0FC01208187E390E020681A
:10096000FC01208387E390E0FC01208187E390E095
:100970002061FC01208378948DE290E023EDFC015E
:1009800020838DE290E0FC0120818DE290E02068E0
:10099000FC0120838DE290E0FC0120818DE290E05B
:1009A0002064FC0120830000DF91CF910895CF9354
:1009B000DF930F92CDB7DEB789838FE290E0298174
:1009C000FC01208300000F90DF91CF910895CF9319
:1009D000DF93CDB7DEB78FE290E0FC018081DF913D
:1009E000CF910895CF93DF9300D0CDB7DEB71A82B1
:1009F00019828AE290E028E1FC01208380E490E003
:100A000026E8FC01208387E690E09A83898389E2C7
:100A100090E02981FC01208389819A81292F332745
:100A200080E490E0FC01208378948AE290E0FC016D
:100A300020818AE290E02068FC01208300000F9072
:100A40000F90DF91CF910895CF93DF930F92CDB7A1
:100A5000DEB789838CE290E02981FC0120830000CD
:100A60008BE290E0FC01808182958695869583706B
:100A7000882F90E081709927019791F7000000007E
:100A80000F90DF91CF910895CF93DF93CDB7DEB76D
:100A90008CE290E0FC018081DF91CF910895CF93AB
:100AA000DF9300D0CDB7DEB79A83898300008BE255
:100AB00090E0FC018081881F8827881F882F90E0A4
:100AC00081709927019799F78CE290E0FC012081D1
:100AD00089819A81FC01208381E00F900F90DF9142
:080AE000CF910895F894FFCFB7
:00000001FF
