:100000000C942A000C943C000C943C000C943C0092
:100010000C943C000C943C000C943C000C943C0070
:100020000C943C000C943C000C943C000C943C0060
:100030000C944B000C943C000C943C000C943C0041
:100040000C943C000C943C000C943C000C943C0040
:100050000C943C0011241FBECFE5D8E0DEBFCDBF1D
:1000600020E0A0E6B0E001C01D92A136B207E1F7A2
:100070000E943E000C9400050C940000CF93DF9387
:10008000CDB7DEB70E94A1040E9408040E943B0481
:100090000E946E04FFCF1F920F920FB60F92112491
:1000A0002F933F934F935F936F937F938F939F9380
:1000B000AF93BF93EF93FF93CF93DF93CDB7DEB7AB
:1000C0000E94F5048093600080916000882F90E08A
:1000D0008937910521F18A37910554F582379105C9
:1000E000C1F08337910524F587369105F1F0883604
:1000F0009105F4F48935910579F08A359105C4F4B8
:100100008734910579F08235910591F40E941504A8
:100110000FC00E9422040CC00E94480409C00E9423
:10012000550406C00E947B0403C00E94880400009E
:100130000000DF91CF91FF91EF91BF91AF919F911F
:100140008F917F916F915F914F913F912F910F9080
:100150000FBE0F901F901895CF93DF9300D00F9292
:10016000CDB7DEB789836A834B838B81882F90E07C
:10017000009721F0019709F475C0E7C08981882FA5
:1001800090E08330910509F455C0843091050CF05E
:10019000D9C082309105B9F1833091050CF0D2C0FD
:1001A000009719F00197C1F0CDC08AE390E0FC01FF
:1001B0008081482F8A81282F30E081E090E002C0C2
:1001C000880F991F2A95E2F78095242F28238AE328
:1001D00090E0FC01208345C087E390E0FC01808132
:1001E000482F8A81282F30E081E090E002C0880FFC
:1001F000991F2A95E2F78095242F282387E390E022
:10020000FC0120832EC084E390E0FC018081482F14
:100210008A81282F30E081E090E002C0880F991F8A
:100220002A95E2F78095242F282384E390E0FC01AF
:10023000208317C081E390E0FC018081482F8A81F0
:10024000282F30E081E090E002C0880F991F2A95A6
:10025000E2F78095242F282381E390E0FC0120839E
:10026000000070C08981882F90E08330910509F4E7
:1002700052C0843091050CF067C082309105A9F11D
:10028000833091050CF060C0009719F00197B9F028
:100290005BC08AE390E0FC018081482F8A81282F8F
:1002A00030E081E090E002C0880F991F2A95E2F7C4
:1002B000242F282B8AE390E0FC01208342C087E3AF
:1002C00090E0FC018081482F8A81282F30E081E076
:1002D00090E002C0880F991F2A95E2F7242F282B5F
:1002E00087E390E0FC0120832CC084E390E0FC01D4
:1002F0008081482F8A81282F30E081E090E002C081
:10030000880F991F2A95E2F7242F282B84E390E089
:10031000FC01208316C081E390E0FC018081482F1E
:100320008A81282F30E081E090E002C0880F991F79
:100330002A95E2F7242F282B81E390E0FC0120830B
:10034000000002C0000001C0000000000F900F90EC
:100350000F90DF91CF910895CF93DF9300D00F924C
:10036000CDB7DEB789836A834B838B81882F90E07A
:10037000009721F0019709F475C0E7C08981882FA3
:1003800090E08330910509F455C0843091050CF05C
:10039000D9C082309105B9F1833091050CF0D2C0FB
:1003A000009719F00197C1F0CDC08BE390E0FC01FC
:1003B0008081482F8A81282F30E081E090E002C0C0
:1003C000880F991F2A95E2F78095242F28238BE325
:1003D00090E0FC01208345C088E390E0FC0180812F
:1003E000482F8A81282F30E081E090E002C0880FFA
:1003F000991F2A95E2F78095242F282388E390E01F
:10040000FC0120832EC085E390E0FC018081482F11
:100410008A81282F30E081E090E002C0880F991F88
:100420002A95E2F78095242F282385E390E0FC01AC
:10043000208317C082E390E0FC018081482F8A81ED
:10044000282F30E081E090E002C0880F991F2A95A4
:10045000E2F78095242F282382E390E0FC0120839B
:10046000000070C08981882F90E08330910509F4E5
:1004700052C0843091050CF067C082309105A9F11B
:10048000833091050CF060C0009719F00197B9F026
:100490005BC08BE390E0FC018081482F8A81282F8C
:1004A00030E081E090E002C0880F991F2A95E2F7C2
:1004B000242F282B8BE390E0FC01208342C088E3AB
:1004C00090E0FC018081482F8A81282F30E081E074
:1004D00090E002C0880F991F2A95E2F7242F282B5D
:1004E00088E390E0FC0120832CC085E390E0FC01D0
:1004F0008081482F8A81282F30E081E090E002C07F
:10050000880F991F2A95E2F7242F282B85E390E086
:10051000FC01208316C082E390E0FC018081482F1B
:100520008A81282F30E081E090E002C0880F991F77
:100530002A95E2F7242F282B82E390E0FC01208308
:10054000000002C0000001C0000000000F900F90EA
:100550000F90DF91CF910895CF93DF9300D0CDB767
:10056000DEB789836A838981882F90E08330910583
:1005700009F452C0843091050CF064C082309105BA
:10058000A9F1833091050CF05DC0009719F0019737
:10059000B9F058C08BE390E0FC018081482F8A813C
:1005A000282F30E081E090E002C0880F991F2A9543
:1005B000E2F7242F28278BE390E0FC01208342C040
:1005C00088E390E0FC018081482F8A81282F30E069
:1005D00081E090E002C0880F991F2A95E2F7242F4E
:1005E000282788E390E0FC0120832CC085E390E07D
:1005F000FC018081482F8A81282F30E081E090E043
:1006000002C0880F991F2A95E2F7242F282785E337
:1006100090E0FC01208316C082E390E0FC01808121
:10062000482F8A81282F30E081E090E002C0880FB7
:10063000991F2A95E2F7242F282782E390E0FC01F6
:100640002083000000000F900F90DF91CF9108955C
:10065000CF93DF9300D0CDB7DEB789836A838981DA
:10066000882F90E08330910509F440C084309105D3
:100670000CF04CC08230910549F1833091050CF0AB
:1006800045C0009719F0019789F040C089E390E0D8
:10069000FC018081882F90E02A81222F30E002C067
:1006A000959587952A95E2F7817031C086E390E0B1
:1006B000FC018081882F90E02A81222F30E002C047
:1006C000959587952A95E2F7817021C083E390E0A4
:1006D000FC018081882F90E02A81222F30E002C027
:1006E000959587952A95E2F7817011C080E390E097
:1006F000FC018081882F90E02A81222F30E002C007
:10070000959587952A95E2F7817001C080E00F905A
:100710000F90DF91CF910895CF93DF9300D0CDB7A5
:10072000DEB789836A838981882F90E083309105C1
:1007300009F452C0843091050CF064C082309105F8
:10074000A9F1833091050CF05DC0009719F0019775
:10075000B9F058C08BE390E0FC018081482F8A817A
:10076000282F30E081E090E002C0880F991F2A9581
:10077000E2F7242F282B8BE390E0FC01208342C07A
:1007800088E390E0FC018081482F8A81282F30E0A7
:1007900081E090E002C0880F991F2A95E2F7242F8C
:1007A000282B88E390E0FC0120832CC085E390E0B7
:1007B000FC018081482F8A81282F30E081E090E081
:1007C00002C0880F991F2A95E2F7242F282B85E372
:1007D00090E0FC01208316C082E390E0FC01808160
:1007E000482F8A81282F30E081E090E002C0880FF6
:1007F000991F2A95E2F7242F282B82E390E0FC0131
:100800002083000000000F900F90DF91CF9108959A
:10081000CF93DF93CDB7DEB741E062E082E00E9484
:10082000AC000000DF91CF910895CF93DF93CDB757
:10083000DEB741E062E082E00E94AC010000DF919F
:10084000CF910895CF93DF93CDB7DEB740E062E05C
:1008500082E00E94AC010000DF91CF910895CF9318
:10086000DF93CDB7DEB762E082E00E94AC02000009
:10087000DF91CF910895CF93DF93CDB7DEB741E0FD
:1008800067E082E00E94AC000000DF91CF91089504
:10089000CF93DF93CDB7DEB741E067E082E00E94FF
:1008A000AC010000DF91CF910895CF93DF93CDB7D6
:1008B000DEB740E067E082E00E94AC010000DF911B
:1008C000CF910895CF93DF93CDB7DEB767E082E095
:1008D0000E94AC020000DF91CF910895CF93DF9387
:1008E000CDB7DEB741E063E083E00E94AC000000DA
:1008F000DF91CF910895CF93DF93CDB7DEB741E07D
:1009000063E083E00E94AC010000DF91CF91089585
:10091000CF93DF93CDB7DEB740E063E083E00E9482
:10092000AC010000DF91CF910895CF93DF93CDB755
:10093000DEB763E083E00E94AC020000DF91CF915C
:100940000895CF93DF93CDB7DEB787E390E0FC0146
:10095000208187E390E02F7DFC01208387E390E0F6
:10096000FC01208187E390E02064FC01208387E381
:1009700090E0FC01208187E390E02F77FC01208349
:1009800087E390E0FC01208187E390E02F7EFC016B
:10099000208378948DE290E0FC0120818DE290E04C
:1009A0002068FC0120838DE290E0FC0120818DE233
:1009B00090E02064FC0120838DE290E023ECFC01B8
:1009C00020830000DF91CF910895CF93DF930F92A2
:1009D000CDB7DEB789838FE290E02981FC012083C7
:1009E00000000F90DF91CF910895CF93DF93CDB7A3
:1009F000DEB78FE290E0FC018081DF91CF91089516
:040A0000F894FFCF98
:00000001FF
